{
  "contractName": "evoting",
  "abi": [
    {
      "inputs": [
        {
          "internalType": "string",
          "name": "_evotingOfficialName",
          "type": "string"
        },
        {
          "internalType": "string",
          "name": "_proposal",
          "type": "string"
        }
      ],
      "payable": false,
      "stateMutability": "nonpayable",
      "type": "constructor"
    },
    {
      "anonymous": false,
      "inputs": [
        {
          "indexed": false,
          "internalType": "address",
          "name": "voter",
          "type": "address"
        }
      ],
      "name": "voteDone",
      "type": "event"
    },
    {
      "anonymous": false,
      "inputs": [
        {
          "indexed": false,
          "internalType": "uint256",
          "name": "finalResult",
          "type": "uint256"
        }
      ],
      "name": "voteEnded",
      "type": "event"
    },
    {
      "anonymous": false,
      "inputs": [],
      "name": "voteStarted",
      "type": "event"
    },
    {
      "anonymous": false,
      "inputs": [
        {
          "indexed": false,
          "internalType": "address",
          "name": "voter",
          "type": "address"
        }
      ],
      "name": "voterAdded",
      "type": "event"
    },
    {
      "constant": true,
      "inputs": [],
      "name": "evotingOfficialAddress",
      "outputs": [
        {
          "internalType": "address",
          "name": "",
          "type": "address"
        }
      ],
      "payable": false,
      "stateMutability": "view",
      "type": "function"
    },
    {
      "constant": true,
      "inputs": [],
      "name": "evotingOfficialName",
      "outputs": [
        {
          "internalType": "string",
          "name": "",
          "type": "string"
        }
      ],
      "payable": false,
      "stateMutability": "view",
      "type": "function"
    },
    {
      "constant": true,
      "inputs": [],
      "name": "finalResult",
      "outputs": [
        {
          "internalType": "uint256",
          "name": "",
          "type": "uint256"
        }
      ],
      "payable": false,
      "stateMutability": "view",
      "type": "function"
    },
    {
      "constant": true,
      "inputs": [],
      "name": "proposal",
      "outputs": [
        {
          "internalType": "string",
          "name": "",
          "type": "string"
        }
      ],
      "payable": false,
      "stateMutability": "view",
      "type": "function"
    },
    {
      "constant": true,
      "inputs": [],
      "name": "state",
      "outputs": [
        {
          "internalType": "enum evoting.State",
          "name": "",
          "type": "uint8"
        }
      ],
      "payable": false,
      "stateMutability": "view",
      "type": "function"
    },
    {
      "constant": true,
      "inputs": [],
      "name": "totalVote",
      "outputs": [
        {
          "internalType": "uint256",
          "name": "",
          "type": "uint256"
        }
      ],
      "payable": false,
      "stateMutability": "view",
      "type": "function"
    },
    {
      "constant": true,
      "inputs": [],
      "name": "totalVoter",
      "outputs": [
        {
          "internalType": "uint256",
          "name": "",
          "type": "uint256"
        }
      ],
      "payable": false,
      "stateMutability": "view",
      "type": "function"
    },
    {
      "constant": true,
      "inputs": [
        {
          "internalType": "address",
          "name": "",
          "type": "address"
        }
      ],
      "name": "voterRegister",
      "outputs": [
        {
          "internalType": "string",
          "name": "voterName",
          "type": "string"
        },
        {
          "internalType": "bool",
          "name": "voted",
          "type": "bool"
        }
      ],
      "payable": false,
      "stateMutability": "view",
      "type": "function"
    },
    {
      "constant": false,
      "inputs": [
        {
          "internalType": "address",
          "name": "_voterAddress",
          "type": "address"
        },
        {
          "internalType": "string",
          "name": "_voterName",
          "type": "string"
        }
      ],
      "name": "addVoter",
      "outputs": [],
      "payable": false,
      "stateMutability": "nonpayable",
      "type": "function"
    },
    {
      "constant": false,
      "inputs": [],
      "name": "startVote",
      "outputs": [],
      "payable": false,
      "stateMutability": "nonpayable",
      "type": "function"
    },
    {
      "constant": false,
      "inputs": [
        {
          "internalType": "bool",
          "name": "_choice",
          "type": "bool"
        }
      ],
      "name": "doVote",
      "outputs": [
        {
          "internalType": "bool",
          "name": "voted",
          "type": "bool"
        }
      ],
      "payable": false,
      "stateMutability": "nonpayable",
      "type": "function"
    },
    {
      "constant": false,
      "inputs": [],
      "name": "endVote",
      "outputs": [],
      "payable": false,
      "stateMutability": "nonpayable",
      "type": "function"
    }
  ],
  "bytecode": "0x6080604052600080556000600155600060025560006003553480156200002457600080fd5b5060405162000bd738038062000bd7833981810160405260408110156200004a57600080fd5b81019080805160405193929190846401000000008211156200006b57600080fd5b9083019060208201858111156200008157600080fd5b82516401000000008111828201881017156200009c57600080fd5b82525081516020918201929091019080838360005b83811015620000cb578181015183820152602001620000b1565b50505050905090810190601f168015620000f95780820380516001836020036101000a031916815260200191505b50604052602001805160405193929190846401000000008211156200011d57600080fd5b9083019060208201858111156200013357600080fd5b82516401000000008111828201881017156200014e57600080fd5b82525081516020918201929091019080838360005b838110156200017d57818101518382015260200162000163565b50505050905090810190601f168015620001ab5780820380516001836020036101000a031916815260200191505b506040525050600480546001600160a01b03191633179055508151620001d990600590602085019062000202565b508051620001ef90600690602084019062000202565b50506009805460ff1916905550620002a7565b828054600181600116156101000203166002900490600052602060002090601f016020900481019282601f106200024557805160ff191683800117855562000275565b8280016001018555821562000275579182015b828111156200027557825182559160200191906001019062000258565b506200028392915062000287565b5090565b620002a491905b808211156200028357600081556001016200028e565b90565b61092080620002b76000396000f3fe608060405234801561001057600080fd5b50600436106100b45760003560e01c8063af15408711610071578063af154087146101b9578063b922394614610262578063c19d93fb1461026a578063d9e95a9814610296578063f1cea4c71461034c578063f3a8286f14610354576100b4565b806307d9c939146100b95780633055bcc7146100dd5780634c0a6af01461015a5780636332abc914610164578063753ec1031461017e57806387caea7814610186575b600080fd5b6100c161035c565b604080516001600160a01b039092168252519081900360200190f35b6100e561036b565b6040805160208082528351818301528351919283929083019185019080838360005b8381101561011f578181015183820152602001610107565b50505050905090810190601f16801561014c5780820380516001836020036101000a031916815260200191505b509250505060405180910390f35b6101626103f9565b005b61016c610467565b60408051918252519081900360200190f35b6100e561046d565b6101a56004803603602081101561019c57600080fd5b503515156104c8565b604080519115158252519081900360200190f35b6101df600480360360208110156101cf57600080fd5b50356001600160a01b0316610608565b604051808060200183151515158152602001828103825284818151815260200191508051906020019080838360005b8381101561022657818101518382015260200161020e565b50505050905090810190601f1680156102535780820380516001836020036101000a031916815260200191505b50935050505060405180910390f35b6101626106b2565b610272610732565b6040518082600281111561028257fe5b60ff16815260200191505060405180910390f35b610162600480360360408110156102ac57600080fd5b6001600160a01b0382351691908101906040810160208201356401000000008111156102d757600080fd5b8201836020820111156102e957600080fd5b8035906020019184600183028401116401000000008311171561030b57600080fd5b91908080601f01602080910402602001604051908101604052809392919081815260200183838082843760009201919091525092955061073b945050505050565b61016c610815565b61016c61081b565b6004546001600160a01b031681565b6005805460408051602060026001851615610100026000190190941693909304601f810184900484028201840190925281815292918301828280156103f15780601f106103c6576101008083540402835291602001916103f1565b820191906000526020600020905b8154815290600101906020018083116103d457829003601f168201915b505050505081565b60008060095460ff16600281111561040d57fe5b1461041757600080fd5b6004546001600160a01b0316331461042e57600080fd5b6009805460ff191660011790556040517fd0dc01800a369fef30d3fced5275b8b916549867622e79efca5245c479fda4ea90600090a150565b60025481565b6006805460408051602060026001851615610100026000190190941693909304601f810184900484028201840190925281815292918301828280156103f15780601f106103c6576101008083540402835291602001916103f1565b600060018060095460ff1660028111156104de57fe5b146104e857600080fd5b33600090815260086020526040812054600260001961010060018416150201909116041580159061052c57503360009081526008602052604090206001015460ff16155b156105ce573360009081526008602052604090206001908101805460ff19169091179055610558610821565b338152841580156020830152610572576000805460010190555b6003805460009081526007602090815260409091208351815492909401511515600160a01b0260ff60a01b196001600160a01b039095166001600160a01b03199093169290921793909316179091558054600190810190915590505b6040805133815290517f55c65cf9526efdf6c2252fe9757889dbd93e10172cad0f2edb1df619c88dbf7d9181900360200190a19392505050565b60086020908152600091825260409182902080548351601f6002600019610100600186161502019093169290920491820184900484028101840190945280845290929183919083018282801561069f5780601f106106745761010080835404028352916020019161069f565b820191906000526020600020905b81548152906001019060200180831161068257829003601f168201915b5050506001909301549192505060ff1682565b60018060095460ff1660028111156106c657fe5b146106d057600080fd5b6004546001600160a01b031633146106e757600080fd5b6009805460ff19166002179055600054600181905560408051918252517fb43a401dcdbe02a8afa41feb6c651425997908d1a4b79cf505188ba1dd3fd872916020908290030190a150565b60095460ff1681565b60008060095460ff16600281111561074f57fe5b1461075957600080fd5b6004546001600160a01b0316331461077057600080fd5b610778610838565b828152600060208083018290526001600160a01b03861682526008815260409091208251805184936107ae928492910190610850565b506020918201516001918201805460ff1916911515919091179055600280549091019055604080516001600160a01b038716815290517fb9e5f9042e6c6eb94817f660cfa81afea9585e59d72bfc3348a2305cbd33e133929181900390910190a150505050565b60035481565b60015481565b604080518082019091526000808252602082015290565b60408051808201909152606081526000602082015290565b828054600181600116156101000203166002900490600052602060002090601f016020900481019282601f1061089157805160ff19168380011785556108be565b828001600101855582156108be579182015b828111156108be5782518255916020019190600101906108a3565b506108ca9291506108ce565b5090565b6108e891905b808211156108ca57600081556001016108d4565b9056fea265627a7a723158200818dc6e2fa268283977451b212bf5e68cb863be536c25e436ba7a7e4c2c004664736f6c63430005100032",
  "source": "pragma solidity ^0.5.0;\n\ncontract evoting {\n  struct vote{\n      address voterAddress;\n      bool choice;\n  }\n    \n  struct voter{\n      string voterName;\n      bool voted;\n  }\n\n  uint private countResult = 0;\n  uint public finalResult = 0;\n  uint public totalVoter = 0;\n  uint public totalVote = 0;\n  address public evotingOfficialAddress;      \n  string public evotingOfficialName;\n  string public proposal;\n\n  mapping(uint => vote) private votes;\n  mapping(address => voter) public voterRegister;\n\n\n   enum State { Created, Voting, Ended }\n\t  State public state;\n\n    \t//creates a new evoting contract\n\t    constructor(\n        string memory _evotingOfficialName,\n        string memory _proposal) public {\n        evotingOfficialAddress = msg.sender;\n        evotingOfficialName = _evotingOfficialName;\n        proposal = _proposal;\n        \n        state = State.Created;\n        }\n\n      modifier condition(bool _condition) {\n        require(_condition);\n        _;\n      }\n\n      modifier onlyOfficial() {\n        require(msg.sender ==evotingOfficialAddress);\n        _;\n      }\n\n      modifier inState(State _state) {\n        require(state == _state);\n        _;\n      }\n\n  event voterAdded(address voter);\n  event voteStarted();\n  event voteEnded(uint finalResult);\n  event voteDone(address voter);\n\n\n  //add voter\n  function addVoter(address _voterAddress, string memory _voterName)\n      public\n      inState(State.Created)\n      onlyOfficial\n  {\n      voter memory v;\n      v.voterName = _voterName;\n      v.voted = false;\n      voterRegister[_voterAddress] = v;\n      totalVoter++;\n      emit voterAdded(_voterAddress);\n  }\n\n  //declare voting starts now\n  function startVote()\n      public\n      inState(State.Created)\n      onlyOfficial\n  {\n      state = State.Voting;     \n      emit voteStarted();\n  }\n\n  //voters vote by indicating their choice (true/false)\n  function doVote(bool _choice)\n      public\n      inState(State.Voting)\n      returns (bool voted)\n  {\n      bool found = false;\n      \n      if (bytes(voterRegister[msg.sender].voterName).length != 0 \n      && !voterRegister[msg.sender].voted){\n          voterRegister[msg.sender].voted = true;\n          vote memory v;\n          v.voterAddress = msg.sender;\n          v.choice = _choice;\n          if (_choice){\n              countResult++; //counting on the go\n          }\n          votes[totalVote] = v;\n          totalVote++;\n          found = true;\n      }\n      emit voteDone(msg.sender);\n      return found;\n  }\n  \n  //end votes\n  function endVote()\n      public\n      inState(State.Voting)\n      onlyOfficial\n  {\n      state = State.Ended;\n      finalResult = countResult; //move result from private countResult to public finalResult\n      emit voteEnded(finalResult);\n  }\n\n}",
  "sourcePath": "/home/mehmet/evoting-v2/contracts/evoting.sol",
  "compiler": {
    "name": "solc",
    "version": "0.5.16+commit.9c3226ce.Emscripten.clang"
  },
  "schemaVersion": "3.4.1",
  "updatedAt": "2021-06-22T18:35:20.985Z",
  "networkType": "ethereum",
  "devdoc": {
    "methods": {}
  },
  "userdoc": {
    "methods": {}
  }
}